{
  "contractName": "Plasma",
  "abi": [
    {
      "constant": true,
      "inputs": [],
      "name": "x",
      "outputs": [
        {
          "name": "",
          "type": "uint256"
        }
      ],
      "payable": false,
      "stateMutability": "view",
      "type": "function"
    },
    {
      "constant": true,
      "inputs": [
        {
          "name": "",
          "type": "uint256"
        }
      ],
      "name": "exits",
      "outputs": [
        {
          "name": "exitor",
          "type": "address"
        },
        {
          "name": "token",
          "type": "address"
        },
        {
          "name": "amount",
          "type": "uint256"
        }
      ],
      "payable": false,
      "stateMutability": "view",
      "type": "function"
    },
    {
      "constant": true,
      "inputs": [
        {
          "name": "",
          "type": "uint256"
        }
      ],
      "name": "plasmaChain",
      "outputs": [
        {
          "name": "root",
          "type": "bytes32"
        },
        {
          "name": "timestamp",
          "type": "uint256"
        }
      ],
      "payable": false,
      "stateMutability": "view",
      "type": "function"
    },
    {
      "constant": true,
      "inputs": [],
      "name": "currentPlasmaBlock",
      "outputs": [
        {
          "name": "",
          "type": "uint256"
        }
      ],
      "payable": false,
      "stateMutability": "view",
      "type": "function"
    },
    {
      "constant": true,
      "inputs": [],
      "name": "BLOCK_BUFFER",
      "outputs": [
        {
          "name": "",
          "type": "uint256"
        }
      ],
      "payable": false,
      "stateMutability": "view",
      "type": "function"
    },
    {
      "constant": true,
      "inputs": [],
      "name": "operator",
      "outputs": [
        {
          "name": "",
          "type": "address"
        }
      ],
      "payable": false,
      "stateMutability": "view",
      "type": "function"
    },
    {
      "constant": true,
      "inputs": [],
      "name": "y",
      "outputs": [
        {
          "name": "",
          "type": "uint256"
        }
      ],
      "payable": false,
      "stateMutability": "view",
      "type": "function"
    },
    {
      "constant": true,
      "inputs": [],
      "name": "currentDepositBlock",
      "outputs": [
        {
          "name": "",
          "type": "uint256"
        }
      ],
      "payable": false,
      "stateMutability": "view",
      "type": "function"
    },
    {
      "constant": true,
      "inputs": [
        {
          "name": "",
          "type": "address"
        }
      ],
      "name": "exitQueues",
      "outputs": [
        {
          "name": "",
          "type": "address"
        }
      ],
      "payable": false,
      "stateMutability": "view",
      "type": "function"
    },
    {
      "constant": true,
      "inputs": [],
      "name": "EXIT_BOND",
      "outputs": [
        {
          "name": "",
          "type": "uint256"
        }
      ],
      "payable": false,
      "stateMutability": "view",
      "type": "function"
    },
    {
      "inputs": [],
      "payable": false,
      "stateMutability": "nonpayable",
      "type": "constructor"
    },
    {
      "anonymous": false,
      "inputs": [
        {
          "indexed": false,
          "name": "owner",
          "type": "address"
        },
        {
          "indexed": false,
          "name": "amount",
          "type": "uint256"
        },
        {
          "indexed": false,
          "name": "blockNumber",
          "type": "uint256"
        }
      ],
      "name": "DepositCreated",
      "type": "event"
    },
    {
      "anonymous": false,
      "inputs": [
        {
          "indexed": false,
          "name": "exitor",
          "type": "address"
        },
        {
          "indexed": false,
          "name": "utxoPos",
          "type": "uint256"
        },
        {
          "indexed": false,
          "name": "token",
          "type": "address"
        },
        {
          "indexed": false,
          "name": "amount",
          "type": "uint256"
        }
      ],
      "name": "ExitStarted",
      "type": "event"
    },
    {
      "anonymous": false,
      "inputs": [
        {
          "indexed": false,
          "name": "root",
          "type": "bytes32"
        },
        {
          "indexed": false,
          "name": "timestamp",
          "type": "uint256"
        }
      ],
      "name": "BlockSubmitted",
      "type": "event"
    },
    {
      "constant": false,
      "inputs": [],
      "name": "deposit",
      "outputs": [
        {
          "name": "blockNumber",
          "type": "uint256"
        }
      ],
      "payable": true,
      "stateMutability": "payable",
      "type": "function"
    },
    {
      "constant": false,
      "inputs": [
        {
          "name": "_root",
          "type": "bytes32"
        }
      ],
      "name": "submitBlock",
      "outputs": [],
      "payable": false,
      "stateMutability": "nonpayable",
      "type": "function"
    },
    {
      "constant": false,
      "inputs": [
        {
          "name": "_utxoPos",
          "type": "uint256"
        },
        {
          "name": "_txBytes",
          "type": "bytes"
        },
        {
          "name": "_proof",
          "type": "bytes"
        },
        {
          "name": "_sigs",
          "type": "bytes"
        }
      ],
      "name": "startExit",
      "outputs": [],
      "payable": true,
      "stateMutability": "payable",
      "type": "function"
    },
    {
      "constant": false,
      "inputs": [
        {
          "name": "_utxoPos",
          "type": "uint256"
        },
        {
          "name": "_exitor",
          "type": "address"
        },
        {
          "name": "_token",
          "type": "address"
        },
        {
          "name": "_amount",
          "type": "uint256"
        },
        {
          "name": "_created_at",
          "type": "uint256"
        }
      ],
      "name": "addExitToQueue",
      "outputs": [],
      "payable": false,
      "stateMutability": "nonpayable",
      "type": "function"
    },
    {
      "constant": false,
      "inputs": [
        {
          "name": "_cUtxoPos",
          "type": "uint256"
        },
        {
          "name": "_eUtxoIndex",
          "type": "uint256"
        },
        {
          "name": "_txBytes",
          "type": "bytes"
        },
        {
          "name": "_proof",
          "type": "bytes"
        },
        {
          "name": "_sigs",
          "type": "bytes"
        },
        {
          "name": "_confirmationSig",
          "type": "bytes"
        }
      ],
      "name": "challengeExit",
      "outputs": [],
      "payable": false,
      "stateMutability": "nonpayable",
      "type": "function"
    },
    {
      "constant": false,
      "inputs": [
        {
          "name": "_token",
          "type": "address"
        }
      ],
      "name": "finalizeExits",
      "outputs": [],
      "payable": false,
      "stateMutability": "nonpayable",
      "type": "function"
    },
    {
      "constant": true,
      "inputs": [
        {
          "name": "_token",
          "type": "address"
        }
      ],
      "name": "getNextExit",
      "outputs": [
        {
          "name": "",
          "type": "uint256"
        },
        {
          "name": "",
          "type": "uint256"
        }
      ],
      "payable": false,
      "stateMutability": "view",
      "type": "function"
    }
  ],
  "bytecode": "0x60806040526103e8600055670de0b6b3a76400006001553480156200002357600080fd5b5033600260006101000a81548173ffffffffffffffffffffffffffffffffffffffff021916908373ffffffffffffffffffffffffffffffffffffffff16021790555060005460038190555060016004819055506200008062000121565b604051809103906000f0801580156200009d573d6000803e3d6000fd5b50600760008073ffffffffffffffffffffffffffffffffffffffff1673ffffffffffffffffffffffffffffffffffffffff16815260200190815260200160002060006101000a81548173ffffffffffffffffffffffffffffffffffffffff021916908373ffffffffffffffffffffffffffffffffffffffff16021790555062000132565b6040516109018062002bc183390190565b612a7f80620001426000396000f3fe6080604052600436106100f1576000357c0100000000000000000000000000000000000000000000000000000000900463ffffffff1680630c55699c146100f65780631c91a6b91461012157806332773ba314610314578063342de179146105b55780633cdac42c1461066a578063476a5173146106c057806356e20d6b146106eb578063570ca735146107165780637d7b20511461076d5780638bfe0aec146107be578063a56dfe4a1461082a578063a98c7f2c14610855578063ab2e889614610880578063baa4769414610911578063cc0b9dff1461094c578063d0e30db0146109db578063de5a9f09146109f9575b600080fd5b34801561010257600080fd5b5061010b610a24565b6040518082815260200191505060405180910390f35b6103126004803603608081101561013757600080fd5b81019080803590602001909291908035906020019064010000000081111561015e57600080fd5b82018360208201111561017057600080fd5b8035906020019184600183028401116401000000008311171561019257600080fd5b91908080601f016020809104026020016040519081016040528093929190818152602001838380828437600081840152601f19601f820116905080830192505050505050509192919290803590602001906401000000008111156101f557600080fd5b82018360208201111561020757600080fd5b8035906020019184600183028401116401000000008311171561022957600080fd5b91908080601f016020809104026020016040519081016040528093929190818152602001838380828437600081840152601f19601f8201169050808301925050505050505091929192908035906020019064010000000081111561028c57600080fd5b82018360208201111561029e57600080fd5b803590602001918460018302840111640100000000831117156102c057600080fd5b91908080601f016020809104026020016040519081016040528093929190818152602001838380828437600081840152601f19601f820116905080830192505050505050509192919290505050610a2a565b005b34801561032057600080fd5b506105b3600480360360c081101561033757600080fd5b8101908080359060200190929190803590602001909291908035906020019064010000000081111561036857600080fd5b82018360208201111561037a57600080fd5b8035906020019184600183028401116401000000008311171561039c57600080fd5b91908080601f016020809104026020016040519081016040528093929190818152602001838380828437600081840152601f19601f820116905080830192505050505050509192919290803590602001906401000000008111156103ff57600080fd5b82018360208201111561041157600080fd5b8035906020019184600183028401116401000000008311171561043357600080fd5b91908080601f016020809104026020016040519081016040528093929190818152602001838380828437600081840152601f19601f8201169050808301925050505050505091929192908035906020019064010000000081111561049657600080fd5b8201836020820111156104a857600080fd5b803590602001918460018302840111640100000000831117156104ca57600080fd5b91908080601f016020809104026020016040519081016040528093929190818152602001838380828437600081840152601f19601f8201169050808301925050505050505091929192908035906020019064010000000081111561052d57600080fd5b82018360208201111561053f57600080fd5b8035906020019184600183028401116401000000008311171561056157600080fd5b91908080601f016020809104026020016040519081016040528093929190818152602001838380828437600081840152601f19601f820116905080830192505050505050509192919290505050610d7e565b005b3480156105c157600080fd5b506105ee600480360360208110156105d857600080fd5b81019080803590602001909291905050506110ee565b604051808473ffffffffffffffffffffffffffffffffffffffff1673ffffffffffffffffffffffffffffffffffffffff1681526020018373ffffffffffffffffffffffffffffffffffffffff1673ffffffffffffffffffffffffffffffffffffffff168152602001828152602001935050505060405180910390f35b34801561067657600080fd5b506106a36004803603602081101561068d57600080fd5b8101908080359060200190929190505050611158565b604051808381526020018281526020019250505060405180910390f35b3480156106cc57600080fd5b506106d561117c565b6040518082815260200191505060405180910390f35b3480156106f757600080fd5b50610700611182565b6040518082815260200191505060405180910390f35b34801561072257600080fd5b5061072b611188565b604051808273ffffffffffffffffffffffffffffffffffffffff1673ffffffffffffffffffffffffffffffffffffffff16815260200191505060405180910390f35b34801561077957600080fd5b506107bc6004803603602081101561079057600080fd5b81019080803573ffffffffffffffffffffffffffffffffffffffff1690602001909291905050506111ae565b005b3480156107ca57600080fd5b5061080d600480360360208110156107e157600080fd5b81019080803573ffffffffffffffffffffffffffffffffffffffff169060200190929190505050611627565b604051808381526020018281526020019250505060405180910390f35b34801561083657600080fd5b5061083f611738565b6040518082815260200191505060405180910390f35b34801561086157600080fd5b5061086a61173e565b6040518082815260200191505060405180910390f35b34801561088c57600080fd5b506108cf600480360360208110156108a357600080fd5b81019080803573ffffffffffffffffffffffffffffffffffffffff169060200190929190505050611744565b604051808273ffffffffffffffffffffffffffffffffffffffff1673ffffffffffffffffffffffffffffffffffffffff16815260200191505060405180910390f35b34801561091d57600080fd5b5061094a6004803603602081101561093457600080fd5b8101908080359060200190929190505050611777565b005b34801561095857600080fd5b506109d9600480360360a081101561096f57600080fd5b8101908080359060200190929190803573ffffffffffffffffffffffffffffffffffffffff169060200190929190803573ffffffffffffffffffffffffffffffffffffffff1690602001909291908035906020019092919080359060200190929190505050611870565b005b6109e3611c2e565b6040518082815260200191505060405180910390f35b348015610a0557600080fd5b50610a0e611d7e565b6040518082815260200191505060405180910390f35b60085481565b3460088190555060015434141515610a4157600080fd5b6000633b9aca0085811515610a5257fe5b0490506000612710633b9aca0087811515610a6957fe5b06811515610a7357fe5b04905060006127108202633b9aca0084028803039050610a9161295f565b610aa48288611d8490919063ffffffff16565b9050806000015173ffffffffffffffffffffffffffffffffffffffff163373ffffffffffffffffffffffffffffffffffffffff16141515610b4d576040517f08c379a00000000000000000000000000000000000000000000000000000000081526004018080602001828103825260168152602001807f53656e646572206d75737420626520657869746f722e0000000000000000000081525060200191505060405180910390fd5b60006005600086815260200190815260200160002060000154905060008880519060200120610b7f8860006082611ea4565b6040516020018083815260200182805190602001908083835b602083101515610bbd5780518252602082019150602081019050602083039250610b98565b6001836020036101000a03801982511681845116808217855250505050505090500192505050604051602081830303815290604052805190602001209050610c1285838a84611f32909392919063ffffffff16565b1515610cac576040517f08c379a00000000000000000000000000000000000000000000000000000000081526004018080602001828103825260248152602001807f5472616e73616374696f6e204d65726b6c652070726f6f6620697320696e766181526020017f6c69642e0000000000000000000000000000000000000000000000000000000081525060400191505060405180910390fd5b610cc389805190602001208385606001518a612084565b1515610d37576040517f08c379a00000000000000000000000000000000000000000000000000000000081526004018080602001828103825260168152602001807f5369676e617475726573206d757374206d617463682e0000000000000000000081525060200191505060405180910390fd5b6000836000015190506000819050610d708c8287604001518860200151600560008e815260200190815260200160002060010154611870565b505050505050505050505050565b6000610d93868661224690919063ffffffff16565b90506000612710633b9aca0089811515610da957fe5b06811515610db357fe5b049050600060056000633b9aca008b811515610dcb57fe5b048152602001908152602001600020600001549050600087805190602001209050600081836040516020018083815260200182815260200192505050604051602081830303815290604052805190602001209050600082886040516020018083815260200182805190602001908083835b602083101515610e615780518252602082019150602081019050602083039250610e3c565b6001836020036101000a0380198251168184511680821785525050505050509050019250505060405160208183030381529060405280519060200120905060006006600088815260200190815260200160002060000160009054906101000a900473ffffffffffffffffffffffffffffffffffffffff169050610ee483896122e4565b73ffffffffffffffffffffffffffffffffffffffff168173ffffffffffffffffffffffffffffffffffffffff16141515610fac576040517f08c379a000000000000000000000000000000000000000000000000000000000815260040180806020018281038252602f8152602001807f436f6e6669726d6174696f6e207369676e6174757265206d757374206265207381526020017f69676e6564206279206f776e65722e000000000000000000000000000000000081525060400191505060405180910390fd5b610fc386868c85611f32909392919063ffffffff16565b151561105d576040517f08c379a00000000000000000000000000000000000000000000000000000000081526004018080602001828103825260248152602001807f5472616e73616374696f6e204d65726b6c652070726f6f6620697320696e766181526020017f6c69642e0000000000000000000000000000000000000000000000000000000081525060400191505060405180910390fd5b6006600088815260200190815260200160002060000160006101000a81549073ffffffffffffffffffffffffffffffffffffffff02191690553373ffffffffffffffffffffffffffffffffffffffff166108fc6001549081150290604051600060405180830381858888f193505050501580156110de573d6000803e3d6000fd5b5050505050505050505050505050565b60066020528060005260406000206000915090508060000160009054906101000a900473ffffffffffffffffffffffffffffffffffffffff16908060010160009054906101000a900473ffffffffffffffffffffffffffffffffffffffff16908060020154905083565b60056020528060005260406000206000915090508060000154908060010154905082565b60035481565b60005481565b600260009054906101000a900473ffffffffffffffffffffffffffffffffffffffff1681565b6000806111ba83611627565b80935081925050506000600760008573ffffffffffffffffffffffffffffffffffffffff1673ffffffffffffffffffffffffffffffffffffffff16815260200190815260200160002060009054906101000a900473ffffffffffffffffffffffffffffffffffffffff16905061122e6129b4565b60066000858152602001908152602001600020606060405190810160405290816000820160009054906101000a900473ffffffffffffffffffffffffffffffffffffffff1673ffffffffffffffffffffffffffffffffffffffff1673ffffffffffffffffffffffffffffffffffffffff1681526020016001820160009054906101000a900473ffffffffffffffffffffffffffffffffffffffff1673ffffffffffffffffffffffffffffffffffffffff1673ffffffffffffffffffffffffffffffffffffffff16815260200160028201548152505090505b4283101561161f5760066000858152602001908152602001600020606060405190810160405290816000820160009054906101000a900473ffffffffffffffffffffffffffffffffffffffff1673ffffffffffffffffffffffffffffffffffffffff1673ffffffffffffffffffffffffffffffffffffffff1681526020016001820160009054906101000a900473ffffffffffffffffffffffffffffffffffffffff1673ffffffffffffffffffffffffffffffffffffffff1673ffffffffffffffffffffffffffffffffffffffff1681526020016002820154815250509050600073ffffffffffffffffffffffffffffffffffffffff16816000015173ffffffffffffffffffffffffffffffffffffffff1614151561147357806000015173ffffffffffffffffffffffffffffffffffffffff166108fc6001548360400151019081150290604051600060405180830381858888f19350505050158015611471573d6000803e3d6000fd5b505b8173ffffffffffffffffffffffffffffffffffffffff1663b07576ac6040518163ffffffff167c01000000000000000000000000000000000000000000000000000000000281526004016040805180830381600087803b1580156114d657600080fd5b505af11580156114ea573d6000803e3d6000fd5b505050506040513d604081101561150057600080fd5b81019080805190602001909291908051906020019092919050505050506006600085815260200190815260200160002060000160006101000a81549073ffffffffffffffffffffffffffffffffffffffff021916905560008273ffffffffffffffffffffffffffffffffffffffff1663bda1504b6040518163ffffffff167c010000000000000000000000000000000000000000000000000000000002815260040160206040518083038186803b1580156115ba57600080fd5b505afa1580156115ce573d6000803e3d6000fd5b505050506040513d60208110156115e457600080fd5b810190808051906020019092919050505011156116115761160485611627565b809550819450505061161a565b50505050611624565b611306565b505050505b50565b600080600760008473ffffffffffffffffffffffffffffffffffffffff1673ffffffffffffffffffffffffffffffffffffffff16815260200190815260200160002060009054906101000a900473ffffffffffffffffffffffffffffffffffffffff1673ffffffffffffffffffffffffffffffffffffffff1663d6362e976040518163ffffffff167c0100000000000000000000000000000000000000000000000000000000028152600401604080518083038186803b1580156116ea57600080fd5b505afa1580156116fe573d6000803e3d6000fd5b505050506040513d604081101561171457600080fd5b81019080805190602001909291908051906020019092919050505091509150915091565b60095481565b60045481565b60076020528060005260406000206000915054906101000a900473ffffffffffffffffffffffffffffffffffffffff1681565b600260009054906101000a900473ffffffffffffffffffffffffffffffffffffffff1673ffffffffffffffffffffffffffffffffffffffff163373ffffffffffffffffffffffffffffffffffffffff161415156117d357600080fd5b60408051908101604052808281526020014281525060056000600354815260200190815260200160002060008201518160000155602082015181600101559050506000546003600082825401925050819055507f3be20e672590051e92360aa9dd9247e52541ad35d7a0297ff9e0f94e993295e98142604051808381526020018281526020019250505060405180910390a1600160048190555050565b6000821115156118e8576040517f08c379a000000000000000000000000000000000000000000000000000000000815260040180806020018281038252601a8152602001807f457869742076616c75652063616e6e6f74206265207a65726f2e00000000000081525060200191505060405180910390fd5b60006006600087815260200190815260200160002060020154141515611976576040517f08c379a000000000000000000000000000000000000000000000000000000000815260040180806020018281038252601a8152602001807f457869742063616e6e6f7420616c72656164792065786973742e00000000000081525060200191505060405180910390fd5b600061198c62127500830162093a80420161248b565b9050806008819055506000600760008673ffffffffffffffffffffffffffffffffffffffff1673ffffffffffffffffffffffffffffffffffffffff16815260200190815260200160002060009054906101000a900473ffffffffffffffffffffffffffffffffffffffff1690508073ffffffffffffffffffffffffffffffffffffffff16631d834a1b83896040518363ffffffff167c01000000000000000000000000000000000000000000000000000000000281526004018083815260200182815260200192505050600060405180830381600087803b158015611a7057600080fd5b505af1158015611a84573d6000803e3d6000fd5b505050506060604051908101604052808773ffffffffffffffffffffffffffffffffffffffff1681526020018673ffffffffffffffffffffffffffffffffffffffff168152602001858152506006600089815260200190815260200160002060008201518160000160006101000a81548173ffffffffffffffffffffffffffffffffffffffff021916908373ffffffffffffffffffffffffffffffffffffffff16021790555060208201518160010160006101000a81548173ffffffffffffffffffffffffffffffffffffffff021916908373ffffffffffffffffffffffffffffffffffffffff160217905550604082015181600201559050507ff0537507c0bb9b823a1e4f5522ed9f25512618d4d169c9eb70a5ee2e9fb8bd5733888787604051808573ffffffffffffffffffffffffffffffffffffffff1673ffffffffffffffffffffffffffffffffffffffff1681526020018481526020018373ffffffffffffffffffffffffffffffffffffffff1673ffffffffffffffffffffffffffffffffffffffff16815260200182815260200194505050505060405180910390a150505050505050565b6000803334604051602001808373ffffffffffffffffffffffffffffffffffffffff1673ffffffffffffffffffffffffffffffffffffffff166c0100000000000000000000000002815260140182815260200192505050604051602081830303815290604052805190602001209050611ca5612a02565b60408051908101604052808381526020014281525090506000611cc66124a5565b9050816005600083815260200190815260200160002060008201518160000155602082015181600101559050507f72235260b946c311b2455bc3db7b029180adc32d36d49946ccb668abcd1a1a19333483604051808473ffffffffffffffffffffffffffffffffffffffff1673ffffffffffffffffffffffffffffffffffffffff168152602001838152602001828152602001935050505060405180910390a160046000815480929190600101919050555050505090565b60015481565b611d8c61295f565b6060611d9f611d9a856124d7565b61252e565b9050608060405190810160405280611dd38386600202600601815181101515611dc457fe5b90602001906020020151612674565b73ffffffffffffffffffffffffffffffffffffffff168152602001611e148386600202600701815181101515611e0557fe5b90602001906020020151612715565b8152602001611e3a83600a815181101515611e2b57fe5b90602001906020020151612674565b73ffffffffffffffffffffffffffffffffffffffff168152602001611e76836003815181101515611e6757fe5b90602001906020020151612715565b611e97846000815181101515611e8857fe5b90602001906020020151612715565b0281525091505092915050565b6060818301845110151515611eb857600080fd5b6060821560008114611ed557604051915060208201604052611f26565b6040519150601f8416801560200281840101858101878315602002848b0101015b81831015611f135780518352602083019250602081019050611ef6565b50868552601f19601f8301166040525050505b50809150509392505050565b60008060208351811515611f4257fe5b06141515611fb8576040517f08c379a00000000000000000000000000000000000000000000000000000000081526004018080602001828103825260158152602001807f496e76616c69642070726f6f66206c656e6774682e000000000000000000000081525060200191505060405180910390fd5b6000808690506000869050600080602090505b865181111515612072578087015194506000600284811515611fe957fe5b0614156120265783856040516020018083815260200182815260200192505050604051602081830303815290604052805190602001209350612058565b848460405160200180838152602001828152602001925050506040516020818303038152906040528051906020012093505b60028381151561206457fe5b049250602081019050611fcb565b50868314945050505050949350505050565b6000806041835181151561209457fe5b061480156120a55750610104825111155b1515612119576040517f08c379a00000000000000000000000000000000000000000000000000000000081526004018080602001828103825260198152602001807f496e76616c6964207369676e6174757265206c656e6774682e0000000000000081525060200191505060405180910390fd5b60606121288360006041611ea4565b9050606061213884604180611ea4565b905060606121498560826041611ea4565b905060008888604051602001808381526020018281526020019250505060405160208183030381529060405280519060200120905060006001905060006001905061219483856122e4565b73ffffffffffffffffffffffffffffffffffffffff166121b48c886122e4565b73ffffffffffffffffffffffffffffffffffffffff16149150600089111561222c5760606121e58960c36041611ea4565b90506121f184826122e4565b73ffffffffffffffffffffffffffffffffffffffff166122118d886122e4565b73ffffffffffffffffffffffffffffffffffffffff16149150505b8180156122365750805b9650505050505050949350505050565b6000606061225b612256856124d7565b61252e565b90506000600384029050612288828260020181518110151561227957fe5b90602001906020020151612715565b6127106122ae848460010181518110151561229f57fe5b90602001906020020151612715565b02633b9aca006122d785856000018151811015156122c857fe5b90602001906020020151612715565b0201019250505092915050565b60008060008060418551141515612363576040517f08c379a00000000000000000000000000000000000000000000000000000000081526004018080602001828103825260198152602001807f496e76616c6964207369676e6174757265206c656e6774682e0000000000000081525060200191505060405180910390fd5b6020850151925060408501519150606085015160001a9050601b8160ff16101561238e57601b810190505b601b8160ff16141580156123a65750601c8160ff1614155b15612419576040517f08c379a000000000000000000000000000000000000000000000000000000000815260040180806020018281038252601a8152602001807f496e76616c6964207369676e61747572652076657273696f6e2e00000000000081525060200191505060405180910390fd5b60018682858560405160008152602001604052604051808581526020018460ff1660ff1681526020018381526020018281526020019450505050506020604051602081039080840390855afa158015612476573d6000803e3d6000fd5b50505060206040510351935050505092915050565b60008183101561249b578161249d565b825b905092915050565b60006124d26004546124c460005460035461275890919063ffffffff16565b61277190919063ffffffff16565b905090565b6124df612a1f565b6000825114156125075760408051908101604052806000815260200160008152509050612529565b6000602083019050604080519081016040528084518152602001828152509150505b919050565b60606125398261278f565b15156125ad576040517f08c379a00000000000000000000000000000000000000000000000000000000081526004018080602001828103825260148152602001807f4974656d206d7573742062652061206c6973742e00000000000000000000000081525060200191505060405180910390fd5b60006125b8836127c8565b9050806040519080825280602002602001820160405280156125f457816020015b6125e1612a39565b8152602001906001900390816125d95790505b50915060006126068460200151612823565b8460200151019050600080600090505b8381101561266b57612627836128ac565b9150604080519081016040528083815260200184815250858281518110151561264c57fe5b9060200190602002018190525081830192508080600101915050612616565b50505050919050565b6000601582600001511415156126f2576040517f08c379a00000000000000000000000000000000000000000000000000000000081526004018080602001828103825260208152602001807f4974656d206d7573742062652032312063686172616374657273206c6f6e672e81525060200191505060405180910390fd5b6000600183602001510190506000600c6101000a82510490508092505050919050565b6000806127258360200151612823565b9050600081846000015103905060008285602001510190506000826020036101000a825104905080945050505050919050565b600082821115151561276657fe5b818303905092915050565b600080828401905083811015151561278557fe5b8091505092915050565b600080600083602001519050805160001a915060c060ff168260ff1610156127bc576000925050506127c3565b6001925050505b919050565b6000806000905060006127de8460200151612823565b84602001510190506000846000015185602001510190505b8082101561281857612807826128ac565b8201915082806001019350506127f6565b829350505050919050565b600080825160001a9050608060ff168110156128435760009150506128a7565b60b860ff16811080612868575060c060ff168110158015612867575060f860ff1681105b5b156128775760019150506128a7565b60c060ff168110156128975760018060b80360ff168203019150506128a7565b60018060f80360ff168203019150505b919050565b600080825160001a9050608060ff168110156128cc57600191505061295a565b60b860ff168110156128ea576001608060ff1682030191505061295a565b60c060ff1681101561291a5760b78103600184019350806020036101000a84510460018201810193505050612958565b60f860ff1681101561293857600160c060ff1682030191505061295a565b60f78103600184019350806020036101000a845104600182018101935050505b505b919050565b608060405190810160405280600073ffffffffffffffffffffffffffffffffffffffff16815260200160008152602001600073ffffffffffffffffffffffffffffffffffffffff168152602001600081525090565b606060405190810160405280600073ffffffffffffffffffffffffffffffffffffffff168152602001600073ffffffffffffffffffffffffffffffffffffffff168152602001600081525090565b604080519081016040528060008019168152602001600081525090565b604080519081016040528060008152602001600081525090565b60408051908101604052806000815260200160008152509056fea165627a7a72305820cac1bfed864fa02271f091e4589850b57d867850095a4bd4c726e50fe5d626be0029608060405234801561001057600080fd5b50336000806101000a81548173ffffffffffffffffffffffffffffffffffffffff021916908373ffffffffffffffffffffffffffffffffffffffff160217905550602060405190810160405280600060ff168152506001906001610075929190610083565b5060006002819055506100fa565b8280548282559060005260206000209081019282156100c4579160200282015b828111156100c3578251829060ff169055916020019190600101906100a3565b5b5090506100d191906100d5565b5090565b6100f791905b808211156100f35760008160009055506001016100db565b5090565b90565b6107f8806101096000396000f3fe60806040526004361061006d576000357c0100000000000000000000000000000000000000000000000000000000900463ffffffff1680631d834a1b146100725780634017ea3c146100b7578063b07576ac14610106578063bda1504b14610138578063d6362e9714610163575b600080fd5b34801561007e57600080fd5b506100b56004803603604081101561009557600080fd5b810190808035906020019092919080359060200190929190505050610195565b005b3480156100c357600080fd5b506100f0600480360360208110156100da57600080fd5b8101908080359060200190929190505050610256565b6040518082815260200191505060405180910390f35b34801561011257600080fd5b5061011b610279565b604051808381526020018281526020019250505060405180910390f35b34801561014457600080fd5b5061014d6103ab565b6040518082815260200191505060405180910390f35b34801561016f57600080fd5b506101786103b1565b604051808381526020018281526020019250505060405180910390f35b6000809054906101000a900473ffffffffffffffffffffffffffffffffffffffff1673ffffffffffffffffffffffffffffffffffffffff163373ffffffffffffffffffffffffffffffffffffffff161415156101f057600080fd5b6000816080849060020a02179050600181908060018154018082558091505090600182039060005260206000200160009091929091909150555061024060016002546103de90919063ffffffff16565b6002819055506102516002546103fc565b505050565b60018181548110151561026557fe5b906000526020600020016000915090505481565b6000806000809054906101000a900473ffffffffffffffffffffffffffffffffffffffff1673ffffffffffffffffffffffffffffffffffffffff163373ffffffffffffffffffffffffffffffffffffffff161415156102d757600080fd5b60006001808154811015156102e857fe5b90600052602060002001549050600160025481548110151561030657fe5b906000526020600020015460018081548110151561032057fe5b9060005260206000200181905550600160025481548110151561033f57fe5b906000526020600020016000905561036360016002546104ec90919063ffffffff16565b6002819055506103736001610505565b61038b600180805490506104ec90919063ffffffff16565b600181610398919061077b565b506103a2816105e3565b92509250509091565b60025481565b6000806103d66001808154811015156103c657fe5b90600052602060002001546105e3565b915091509091565b60008082840190508381101515156103f257fe5b8091505092915050565b60008190506000819050600060018381548110151561041757fe5b906000526020600020015490505b600161043b60028561061b90919063ffffffff16565b81548110151561044757fe5b90600052602060002001548110156104be57600161046f60028561061b90919063ffffffff16565b81548110151561047b57fe5b906000526020600020015460018481548110151561049557fe5b90600052602060002001819055506104b760028461061b90919063ffffffff16565b9250610425565b81831415156104e657806001848154811015156104d757fe5b90600052602060002001819055505b50505050565b60008282111515156104fa57fe5b818303905092915050565b60008190506000819050600060018381548110151561052057fe5b90600052602060002001549050600061053884610636565b90505b6002548111158015610565575060018181548110151561055757fe5b906000526020600020015482115b156105b45760018181548110151561057957fe5b906000526020600020015460018581548110151561059357fe5b90600052602060002001819055508093506105ad84610636565b905061053b565b82841415156105dc57816001858154811015156105cd57fe5b90600052602060002001819055505b5050505050565b6000806000608084908060020a820491505090506000846fffffffffffffffffffffffffffffffff1690508181935093505050915091565b600080828481151561062957fe5b0490508091505092915050565b6000600254610662600161065460028661074090919063ffffffff16565b6103de90919063ffffffff16565b11156106835761067c60028361074090919063ffffffff16565b905061073b565b60016106ac600161069e60028661074090919063ffffffff16565b6103de90919063ffffffff16565b8154811015156106b857fe5b906000526020600020015460016106d960028561074090919063ffffffff16565b8154811015156106e557fe5b906000526020600020015410156107115761070a60028361074090919063ffffffff16565b905061073b565b610738600161072a60028561074090919063ffffffff16565b6103de90919063ffffffff16565b90505b919050565b6000808314156107535760009050610775565b6000828402905082848281151561076657fe5b0414151561077057fe5b809150505b92915050565b8154818355818111156107a2578183600052602060002091820191016107a191906107a7565b5b505050565b6107c991905b808211156107c55760008160009055506001016107ad565b5090565b9056fea165627a7a72305820ca23c5bd37bd126bf860b6f3d2dd46642bfbcba1b9ed7f89e513549078b3d0d20029",
  "source": "pragma solidity ^0.5.0;\n\nimport \"./SafeMath.sol\";\nimport \"./Math.sol\";\nimport \"./PlasmaRLP.sol\";\nimport \"./RLPDecode.sol\";\nimport \"./Merkle.sol\";\nimport \"./ByteUtils.sol\";\nimport \"./Validate.sol\";\nimport \"./PriorityQueue.sol\";\n\ncontract Plasma {\n    using SafeMath for uint256;\n    using PlasmaRLP for bytes;\n    using Merkle for bytes32;\n\n    uint public BLOCK_BUFFER = 1000;\n    uint256 public EXIT_BOND = 1000000000000000000;\n\n    address public operator;\n    uint public currentPlasmaBlock;\n    uint public currentDepositBlock;\n\n    event DepositCreated(\n        address owner,\n        uint amount,\n        uint blockNumber\n    );\n\n    event ExitStarted(\n        address exitor,\n        uint256 utxoPos,\n        address token,\n        uint256 amount\n    );\n\n    event BlockSubmitted(\n        bytes32 root,\n        uint timestamp\n    );\n\n    mapping(uint => PlasmaBlock) public plasmaChain;\n    mapping (uint256 => Exit) public exits;\n    mapping (address => address) public exitQueues;\n\n\n    struct Exit {\n        address payable exitor;\n        address token;\n        uint256 amount;\n    }\n    struct PlasmaBlock {\n        bytes32 root;\n        uint timestamp;\n    }\n\n    modifier onlyOperator() {\n        require(msg.sender == operator);\n        _;\n    }\n\n    constructor() public {\n        operator = msg.sender;\n        currentPlasmaBlock = BLOCK_BUFFER;\n        currentDepositBlock = 1;\n        exitQueues[address(0)] = address(new PriorityQueue());\n    }\n\n    function deposit() public payable returns(uint blockNumber) {\n        bytes32 root = keccak256(abi.encodePacked(msg.sender, msg.value));\n        PlasmaBlock memory depositBlock = PlasmaBlock(root, block.timestamp);\n        uint256 depBlock = getDepositBlock();\n        plasmaChain[depBlock] = depositBlock;\n        emit DepositCreated(msg.sender, msg.value, depBlock);\n        currentDepositBlock++;\n    }\n\n    function submitBlock(bytes32 _root) public onlyOperator {\n        plasmaChain[currentPlasmaBlock] = PlasmaBlock(_root, block.timestamp);\n        currentPlasmaBlock += BLOCK_BUFFER;\n        emit BlockSubmitted(_root, block.timestamp);\n        currentDepositBlock = 1;\n    }\n\n    // @param _utoxPos: should call the plasmaChain encodeUTXOId function\n    // @param _txBytes: created by RLP encoding the transaction on the plasmaChain\n    // @param _proof: created by calling the getProof MerkleTree function\n    // @question: How do we know that he leaf and index is for the proof?\n    // @param sigs: Are these just the signatures for the transaction? How do we get these?\n\n    uint256 public x;\n    uint256 public y;\n    function startExit(\n        uint256 _utxoPos,\n        bytes memory _txBytes,\n        bytes memory _proof,\n        bytes memory _sigs\n    )\n        public\n        payable\n    {\n        x = msg.value;\n        require(msg.value == EXIT_BOND);\n        uint256 blknum = _utxoPos / 1000000000;\n        uint256 txindex = (_utxoPos % 1000000000) / 10000;\n        uint256 oindex = _utxoPos - blknum * 1000000000 - txindex * 10000;\n\n        // Check the sender owns this UTXO.\n        PlasmaRLP.exitingTx memory exitingTx = _txBytes.createExitingTx(oindex);\n        require(msg.sender == exitingTx.exitor, \"Sender must be exitor.\");\n        // Check the transaction was included in the chain and is correctly signed.\n        bytes32 root = plasmaChain[blknum].root;\n\n        bytes32 merkleHash = keccak256(abi.encodePacked(keccak256(_txBytes), ByteUtils.slice(_sigs, 0, 130)));\n\n        require(merkleHash.checkMembership(txindex, root, _proof), \"Transaction Merkle proof is invalid.\");\n        require(Validate.checkSigs(keccak256(_txBytes), root, exitingTx.inputCount, _sigs), \"Signatures must match.\");\n        address addr = exitingTx.exitor;\n        address payable exitor = address(uint160(addr));\n\n        addExitToQueue(_utxoPos, exitor, exitingTx.token, exitingTx.amount, plasmaChain[blknum].timestamp);\n    }\n\n    function addExitToQueue(\n        uint256 _utxoPos,\n        address payable _exitor,\n        address _token,\n        uint256 _amount,\n        uint256 _created_at\n    )\n        public\n    {\n        // Check exit is valid and doesn't already exist.\n        require(_amount > 0, \"Exit value cannot be zero.\");\n        require(exits[_utxoPos].amount == 0, \"Exit cannot already exist.\");\n        // Calculate priority.\n        uint256 exitableAt = Math.max(_created_at + 2 weeks, block.timestamp + 1 weeks);\n        x = exitableAt;\n        /* uint256 exitableAt = _created_at; */\n        PriorityQueue queue = PriorityQueue(exitQueues[_token]);\n        queue.insert(exitableAt, _utxoPos);\n\n        exits[_utxoPos] = Exit({\n            exitor: _exitor,\n            token: _token,\n            amount: _amount\n        });\n\n        emit ExitStarted(msg.sender, _utxoPos, _token, _amount);\n    }\n\n    // How this works:\n    // Block 1000 has exit UTXO\n\n    function challengeExit(\n        uint256 _cUtxoPos,\n        uint256 _eUtxoIndex,\n        bytes memory _txBytes,\n        bytes memory _proof,\n        bytes memory _sigs,\n        bytes memory _confirmationSig\n    )\n        public\n    {\n       // Encoded position of exiting UTXO\n       uint256 eUtxoPos = _txBytes.getUtxoPos(_eUtxoIndex);\n       // Transaction index of challenging tx\n       uint256 txindex = (_cUtxoPos % 1000000000) / 10000;\n       // Root hash of the block for the challenging tx\n       bytes32 root = plasmaChain[_cUtxoPos / 1000000000].root;\n       // Transaction hash of the challenging transaction\n       bytes32 txHash = keccak256(_txBytes);\n       // Confirmation hash of the challenging transaction\n       bytes32 confirmationHash = keccak256(abi.encodePacked(txHash, root));\n       // Merkle hash of the challenging transaction which included challenging signatures\n       bytes32 merkleHash = keccak256(abi.encodePacked(txHash, _sigs));\n       // Owner address of the exiting transaction. This would be set during startExit()\n       address owner = exits[eUtxoPos].exitor;\n\n       // Validate the spending transaction\n       // The confirmation hash includes the spent utxo as ones of its inputs so the owner should be the owner at the exiting utxo pos\n       require(owner == ECRecovery.recover(confirmationHash, _confirmationSig), \"Confirmation signature must be signed by owner.\");\n       // Checks that the challenging transaction was indeed included in the block\n       require(merkleHash.checkMembership(txindex, root, _proof), \"Transaction Merkle proof is invalid.\");\n\n       // Delete the owner but keep the amount to prevent another exit.\n       // Keeping the amount does not allow one to add an exit to queue as the amount > 0\n       delete exits[eUtxoPos].exitor;\n       // Sends the exit bond to the challenger\n       msg.sender.transfer(EXIT_BOND);\n    }\n\n    function finalizeExits(address _token) public {\n        uint256 utxoPos;\n        uint256 exitableAt;\n        (exitableAt, utxoPos) = getNextExit(_token);\n        PriorityQueue queue = PriorityQueue(exitQueues[_token]);\n        Exit memory currentExit = exits[utxoPos];\n        while (exitableAt < block.timestamp) {\n            currentExit = exits[utxoPos];\n\n            // FIXME: handle ERC-20 transfer\n            /* require(address(0) == _token, \"Token must be ETH.\"); */\n\n            if (currentExit.exitor != address(0)) {\n                currentExit.exitor.transfer(currentExit.amount + EXIT_BOND);\n            }\n\n            queue.delMin();\n            delete exits[utxoPos].exitor;\n\n            if (queue.currentSize() > 0) {\n                (exitableAt, utxoPos) = getNextExit(_token);\n            } else {\n                return;\n            }\n        }\n    }\n\n    function getNextExit(address _token) public view returns (uint256, uint256) {\n        return PriorityQueue(exitQueues[_token]).getMin();\n    }\n\n    function getDepositBlock() internal returns(uint){\n        return currentPlasmaBlock.sub(BLOCK_BUFFER).add(currentDepositBlock);\n    }\n}\n",
  "sourcePath": "/home/cody/Desktop/ChainShot/Plasma/plasma-mvp/contracts/Plasma.sol",
  "compiler": {
    "name": "solc",
    "version": "0.5.0+commit.1d4f565a.Emscripten.clang"
  },
  "schemaVersion": "3.0.1",
  "updatedAt": "2019-02-14T07:34:14.895Z",
  "devdoc": {
    "methods": {}
  },
  "userdoc": {
    "methods": {}
  }
}