{
  "contractName": "Plasma",
  "abi": [
    {
      "constant": true,
      "inputs": [
        {
          "name": "",
          "type": "uint256"
        }
      ],
      "name": "plasmaChain",
      "outputs": [
        {
          "name": "root",
          "type": "bytes32"
        },
        {
          "name": "timestamp",
          "type": "uint256"
        }
      ],
      "payable": false,
      "stateMutability": "view",
      "type": "function"
    },
    {
      "constant": true,
      "inputs": [],
      "name": "operator",
      "outputs": [
        {
          "name": "",
          "type": "address"
        }
      ],
      "payable": false,
      "stateMutability": "view",
      "type": "function"
    },
    {
      "constant": true,
      "inputs": [
        {
          "name": "",
          "type": "uint256"
        }
      ],
      "name": "plasmaExits",
      "outputs": [
        {
          "name": "owner",
          "type": "address"
        },
        {
          "name": "amount",
          "type": "uint256"
        },
        {
          "name": "isActive",
          "type": "bool"
        },
        {
          "name": "isBlocked",
          "type": "bool"
        }
      ],
      "payable": false,
      "stateMutability": "view",
      "type": "function"
    },
    {
      "constant": true,
      "inputs": [],
      "name": "currentPlasmaBlockNumber",
      "outputs": [
        {
          "name": "",
          "type": "uint256"
        }
      ],
      "payable": false,
      "stateMutability": "view",
      "type": "function"
    },
    {
      "inputs": [],
      "payable": false,
      "stateMutability": "nonpayable",
      "type": "constructor"
    },
    {
      "anonymous": false,
      "inputs": [
        {
          "indexed": true,
          "name": "owner",
          "type": "address"
        },
        {
          "indexed": false,
          "name": "amount",
          "type": "uint256"
        },
        {
          "indexed": false,
          "name": "blockNumber",
          "type": "uint256"
        }
      ],
      "name": "DepositCreated",
      "type": "event"
    },
    {
      "anonymous": false,
      "inputs": [
        {
          "indexed": false,
          "name": "blockNumber",
          "type": "uint256"
        },
        {
          "indexed": false,
          "name": "blockRoot",
          "type": "bytes32"
        }
      ],
      "name": "BlockSubmitted",
      "type": "event"
    },
    {
      "anonymous": false,
      "inputs": [
        {
          "indexed": true,
          "name": "owner",
          "type": "address"
        },
        {
          "indexed": false,
          "name": "blockNumber",
          "type": "uint256"
        },
        {
          "indexed": false,
          "name": "txIndex",
          "type": "uint256"
        },
        {
          "indexed": false,
          "name": "outputIndex",
          "type": "uint256"
        },
        {
          "indexed": false,
          "name": "amount",
          "type": "uint256"
        }
      ],
      "name": "ExitStarted",
      "type": "event"
    },
    {
      "constant": false,
      "inputs": [],
      "name": "deposit",
      "outputs": [
        {
          "name": "blockNumber",
          "type": "uint256"
        }
      ],
      "payable": true,
      "stateMutability": "payable",
      "type": "function"
    },
    {
      "constant": false,
      "inputs": [
        {
          "name": "_blockRoot",
          "type": "bytes32"
        }
      ],
      "name": "submitBlock",
      "outputs": [],
      "payable": false,
      "stateMutability": "nonpayable",
      "type": "function"
    },
    {
      "constant": false,
      "inputs": [
        {
          "name": "_txoBlockNumber",
          "type": "uint256"
        },
        {
          "name": "_txoTxIndex",
          "type": "uint256"
        },
        {
          "name": "_txoOutputIndex",
          "type": "uint256"
        },
        {
          "name": "_encodedTx",
          "type": "bytes"
        },
        {
          "name": "_txInclusionProof",
          "type": "bytes"
        },
        {
          "name": "_txSignatures",
          "type": "bytes"
        },
        {
          "name": "_txConfirmationSignatures",
          "type": "bytes"
        }
      ],
      "name": "startExit",
      "outputs": [
        {
          "name": "success",
          "type": "bool"
        }
      ],
      "payable": true,
      "stateMutability": "payable",
      "type": "function"
    },
    {
      "constant": false,
      "inputs": [
        {
          "name": "_exitingTxoBlockNumber",
          "type": "uint256"
        },
        {
          "name": "_exitingTxoTxIndex",
          "type": "uint256"
        },
        {
          "name": "_exitingTxoOutputIndex",
          "type": "uint256"
        },
        {
          "name": "_encodedSpendingTx",
          "type": "bytes"
        },
        {
          "name": "_spendingTxConfirmationSignature",
          "type": "bytes"
        }
      ],
      "name": "challengeExit",
      "outputs": [
        {
          "name": "success",
          "type": "bool"
        }
      ],
      "payable": false,
      "stateMutability": "nonpayable",
      "type": "function"
    },
    {
      "constant": false,
      "inputs": [],
      "name": "processExits",
      "outputs": [
        {
          "name": "processed",
          "type": "uint256"
        }
      ],
      "payable": false,
      "stateMutability": "nonpayable",
      "type": "function"
    }
  ],
  "bytecode": "0x608060405234801561001057600080fd5b50336000806101000a81548173ffffffffffffffffffffffffffffffffffffffff021916908373ffffffffffffffffffffffffffffffffffffffff16021790555060018081905550610875806100676000396000f300608060405260043610610099576000357c0100000000000000000000000000000000000000000000000000000000900463ffffffff1680633cdac42c1461009e578063404f7d66146100ee578063570ca735146101d357806358189e031461022a5780637d53e63314610255578063a732668e146102df578063baa476941461030a578063d0e30db01461033b578063f2f7654914610359575b600080fd5b3480156100aa57600080fd5b506100c9600480360381019080803590602001909291905050506104bd565b6040518083600019166000191681526020018281526020019250505060405180910390f35b3480156100fa57600080fd5b506101b9600480360381019080803590602001909291908035906020019092919080359060200190929190803590602001908201803590602001908080601f0160208091040260200160405190810160405280939291908181526020018383808284378201915050505050509192919290803590602001908201803590602001908080601f01602080910402602001604051908101604052809392919081815260200183838082843782019150505050505091929192905050506104e1565b604051808215151515815260200191505060405180910390f35b3480156101df57600080fd5b506101e86104ec565b604051808273ffffffffffffffffffffffffffffffffffffffff1673ffffffffffffffffffffffffffffffffffffffff16815260200191505060405180910390f35b34801561023657600080fd5b5061023f610511565b6040518082815260200191505060405180910390f35b34801561026157600080fd5b5061028060048036038101908080359060200190929190505050610516565b604051808573ffffffffffffffffffffffffffffffffffffffff1673ffffffffffffffffffffffffffffffffffffffff168152602001848152602001831515151581526020018215151515815260200194505050505060405180910390f35b3480156102eb57600080fd5b506102f4610580565b6040518082815260200191505060405180910390f35b34801561031657600080fd5b506103396004803603810190808035600019169060200190929190505050610586565b005b610343610696565b6040518082815260200191505060405180910390f35b6104a3600480360381019080803590602001909291908035906020019092919080359060200190929190803590602001908201803590602001908080601f0160208091040260200160405190810160405280939291908181526020018383808284378201915050505050509192919290803590602001908201803590602001908080601f0160208091040260200160405190810160405280939291908181526020018383808284378201915050505050509192919290803590602001908201803590602001908080601f0160208091040260200160405190810160405280939291908181526020018383808284378201915050505050509192919290803590602001908201803590602001908080601f01602080910402602001604051908101604052809392919081815260200183838082843782019150505050505091929192905050506107b9565b604051808215151515815260200191505060405180910390f35b60026020528060005260406000206000915090508060000154908060010154905082565b600095945050505050565b6000809054906101000a900473ffffffffffffffffffffffffffffffffffffffff1681565b600090565b60036020528060005260406000206000915090508060000160009054906101000a900473ffffffffffffffffffffffffffffffffffffffff16908060010154908060020160009054906101000a900460ff16908060020160019054906101000a900460ff16905084565b60015481565b61058e61082c565b6000809054906101000a900473ffffffffffffffffffffffffffffffffffffffff1673ffffffffffffffffffffffffffffffffffffffff163373ffffffffffffffffffffffffffffffffffffffff161415156105e957600080fd5b6040805190810160405280836000191681526020014281525090508060026000600154815260200190815260200160002060008201518160000190600019169055602082015181600101559050507f77fa5e4d45afc267e3bb14d490b7ad476159f82dbfb82a3e0f1431168ff05847600154836040518083815260200182600019166000191681526020019250505060405180910390a16001600081548092919060010191905055505050565b6000806106a161082c565b3334604051808373ffffffffffffffffffffffffffffffffffffffff1673ffffffffffffffffffffffffffffffffffffffff166c0100000000000000000000000002815260140182815260200192505050604051809103902091506040805190810160405280836000191681526020014281525090508060026000600154815260200190815260200160002060008201518160000190600019169055602082015181600101559050503373ffffffffffffffffffffffffffffffffffffffff167f72235260b946c311b2455bc3db7b029180adc32d36d49946ccb668abcd1a1a1934600154604051808381526020018281526020019250505060405180910390a2600160008154809291906001019190505550505090565b60003373ffffffffffffffffffffffffffffffffffffffff167f1c0eadf9829e9186130536e8a1e6a1ad2d4461c12964531f150ff96b71e36b35898989346040518085815260200184815260200183815260200182815260200194505050505060405180910390a2979650505050505050565b6040805190810160405280600080191681526020016000815250905600a165627a7a72305820238736bb224fb5d2071ebd02338a7a8323610be7b65c276e81907886f324d1d70029",
  "source": "// Ropsten: 0x905295E3CE19E5d12EE813Ee648f0922899C766C\n// Rinkeby: 0x7815cc0c16f419318f5fc39ae09b6ed1eaa9a73a\n// Kovan: 0x17f9a0d6c6e55833d1549460992f7987ec3d3365\n\npragma solidity ^0.4.18;\n\ncontract Plasma {\n    // Explain that the current model is run by a single operator but could PoS\n    // Explain the role of the operator in terms submitting blocks ect..\n    address public operator;\n\n    // Challenge period is the period an exit must wait until it's submitted to the main chain (Ethereum)\n    // Set up front on contract creation\n    /* uint constant public CHALLENGE_PERIOD; */\n\n    // Bond that is attached to each exit in the case of a challenge. Bond is returned to exit owner if no successful challenges\n    /* uint constant public EXIT_BOND; */\n\n    // Incremented each time a block is added to the Plasma Chain\n    // A block can't be later re-written\n    uint public currentPlasmaBlockNumber;\n\n    // Block number to PlasmaBlock\n    // Should only be modified when submitBlock is called\n    mapping (uint => PlasmaBlock) public plasmaChain;\n\n    // Exit ID to PlasmaExit\n    // Should only be modified when users start or challenge exits\n    // Why would this be modified when challenge exits?\n    mapping (uint => PlasmaExit) public plasmaExits;\n\n    // Is this an external library?\n    // Could probably jsut import this if its too complex\n    /* PriorityQueue exitQueue; */\n\n    // Indexed lets you filter by that param when later searching through events\n    event DepositCreated(\n        address indexed owner,\n        uint amount,\n        uint blockNumber\n    );\n\n    // bytes32 is the how the data of a hex or hash should be stored\n    event BlockSubmitted(\n        uint blockNumber,\n        bytes32 blockRoot\n    );\n\n    // blockNumber of block in which UTXO is held?\n    // outputIndex: index of UTXO?\n    event ExitStarted(\n        address indexed owner,\n        uint blockNumber,\n        uint txIndex,\n        uint outputIndex,\n        uint amount\n    );\n\n    // The actual plasma block that is created and submitted by the operator(s).\n    // This includes a merkle root as well as the timestamp it was submitted\n    // Explain Merkle Root and how it helps to confirm the validity of transactions\n    // Could refer to our Merkle lesson\n    struct PlasmaBlock {\n        bytes32 root;\n        uint timestamp;\n    }\n\n    // Block of data that waits to be submitted post challenge period\n    // How does this struct interact with the UTXO(s) within the Plasma Chain?\n    struct PlasmaExit {\n        address owner;\n        uint amount;\n        bool isActive;\n        bool isBlocked;\n    }\n\n    // Constructor function that sets the operator, challenge period, and exit bond\n    // What are the current implementation for exit bonds\n    function Plasma() {\n        operator = msg.sender;\n        /* CHALLENGE_PERIOD = _challengePeriod;\n        EXIT_BOND = _exitBond; */\n        currentPlasmaBlockNumber = 1;\n    }\n\n    // Allows any user to deposit funds into the contract\n    // Tough to understand right away what is supposed to be submitted to PlasmaBlock\n    // Block is created here and added to the child Chain\n\n    // Not mentioned: how to calculate the root and what it means in this instance, adding the block to the plasmachain, how the actual child chain picks up on this addition\n    function deposit() public payable returns(uint blockNumber) {\n        bytes32 root = keccak256(msg.sender, msg.value);\n        PlasmaBlock memory plasmaBlock = PlasmaBlock(root, block.timestamp);\n        plasmaChain[currentPlasmaBlockNumber] = plasmaBlock;\n        DepositCreated(msg.sender, msg.value, currentPlasmaBlockNumber);\n        currentPlasmaBlockNumber++;\n    }\n\n    // Let operator submit the block to the rootchain\n    // blockRoot is calculated beforehand and passed into the function\n    // blockRoot is the root hash of the Merkle tree of the transactions in the block\n    // How are previous transactions considered? Is this only the root of transactions within this specific block?\n    // Does it matter if the currentBlock is iterated before or after the event?\n    function submitBlock(bytes32 _blockRoot) public {\n        require(msg.sender == operator);\n        PlasmaBlock memory plasmaBlock = PlasmaBlock(_blockRoot, block.timestamp);\n        plasmaChain[currentPlasmaBlockNumber] = plasmaBlock;\n        BlockSubmitted(currentPlasmaBlockNumber, _blockRoot);\n        currentPlasmaBlockNumber++;\n    }\n\n    // EXIT LOGIC BEGINS\n\n    // Allows any user to attempt to withdraw funds from the contract by pointing to a tx output\n    // @param _txoBlockNumber: Block number in which the tx output was created\n    // @param _txoTxIndex: Index of the transaction inside the block\n    // @param _txoOutputIndex: index of the output inside the transactions (either 0 or 1)\n    // Notes: What does this mean being 0 or 1? What exactly is this above mapping to?\n    // @param _encodedTx: RLP encoded transaction that created the output\n    // Notes: Should explain what RLP encoding is and how its used in this context and ethereum transaction in general\n    // @param _txInclusionProof: Merkle proof that _encodedTx was included at _txoBlockNumber and _txoTxIndex\n    // Notes: Is this any different from the normal merkle proof that we would need to provide? Is the user supposed to maintain thse proofs for each transaction? Is the user supposed to be a continual validator of the plasma chain?\n    // @param _txSignatures: initial signatures by the owners of each input to the transactions\n    // @param _txConfirmationSignatures: Confirmation signatures by the owners of each input to the transaction\n    function startExit(\n        uint _txoBlockNumber,\n        uint _txoTxIndex,\n        uint _txoOutputIndex,\n        bytes _encodedTx,\n        bytes _txInclusionProof,\n        bytes _txSignatures,\n        bytes _txConfirmationSignatures\n    ) public payable returns (bool success)\n    {\n        // how to check use _txInclusionProof to check that _encodedTx was included in the Plasma chain?\n        // how to check the output of _encodedTx given by _txoOutputIndex is owned by msg.sender?\n\n        // is block number the current block number or the tx block number?\n        ExitStarted(msg.sender, _txoBlockNumber, _txoTxIndex, _txoOutputIndex, msg.value);\n    }\n\n    // Allows any user to prove that a given exit is invalid\n\n    function challengeExit(\n        uint _exitingTxoBlockNumber,\n        uint _exitingTxoTxIndex,\n        uint _exitingTxoOutputIndex,\n        bytes _encodedSpendingTx,\n        bytes _spendingTxConfirmationSignature\n    ) public returns (bool success)\n    {\n        // how to check that _encodedSpendingTx spends the specified output?\n        // how to check that the _spendingTxConfirmationSignature is correctly signed by the owner of the PlasmaExit?\n\n        // where is the PlasmaExit created that is then set to isBlock == true if above conditions pass\n    }\n\n    // Pays out any exits that have passed their challenge period\n    function processExits() public returns (uint processed) {\n        // how does the PlasmaExit interact with the exitQueue?\n        // Assuming the exitQueue is filled with PlasmaExits and on each iteration we check for isBlocked?\n        // Not fully explained when PlasmaExits are created and how they interact with PriorityQueue\n    }\n}\n",
  "sourcePath": "/home/cody/Desktop/ChainShot/Plasma/plasma-mvp/contracts/Plasma.sol",
  "compiler": {
    "name": "solc",
    "version": "0.4.24+commit.e67f0147.Emscripten.clang"
  },
  "schemaVersion": "2.0.1",
  "updatedAt": "2018-11-10T00:59:41.008Z"
}